:020000040800F2
:10000000900600206D01000891010008930100088E
:100010009501000897010008990100080000000000
:100020000000000000000000000000009B0100082C
:100030009D010008000000009F010008A1010008C8
:10004000A3010008A3010008A3010008A301000800
:10005000A3010008A3010008A3010008A3010008F0
:10006000A3010008A3010008A3010008A3010008E0
:10007000A3010008A3010008A3010008A3010008D0
:10008000A3010008A3010008A3010008A3010008C0
:10009000A3010008A3010008A3010008A3010008B0
:1000A000A3010008A3010008A3010008A3010008A0
:1000B000A3010008A3010008A3010008A301000890
:1000C000A3010008A3010008A3010008A301000880
:1000D000A3010008A3010008A3010008A301000870
:1000E000A3010008A3010008A301000800F002F822
:1000F00000F02CF80AA090E8000C82448344AAF196
:100100000107DA4501D100F021F8AFF2090EBAE893
:100110000F0013F0010F18BFFB1A43F0010318473B
:10012000E8010000F801000000230024002500265B
:10013000103A28BF78C1FBD8520728BF30C148BF4A
:100140000B6070471FB51FBD10B510BD00F045F81E
:100150001146FFF7F7FF00F0B5F800F063F803B4BD
:10016000FFF7F2FF03BC00F06BF800001048804777
:10017000DFF84000016841F4E0210160BFF34F8FD8
:10018000DFF83400DFF8341001600D480047704795
:10019000FEE7FEE7FEE7FEE7FEE7FEE7FEE7FEE737
:1001A000FEE7FEE707480849084A094B7047000088
:1001B0008F01000824ED00E00CED00E00003FA05DB
:1001C000ED00000890000020900600209002002022
:1001D00090020020704770477047754600F02CF879
:1001E000AE4605006946534620F00700854618B024
:1001F00020B5FFF7D7FFBDE820404FF000064FF0D5
:1002000000074FF000084FF0000B21F00701AC464B
:10021000ACE8C009ACE8C009ACE8C009ACE8C0096A
:100220008D46704710B50446AFF300802046BDE808
:100230001040FFF794BF00000048704730000020D6
:1002400001491820ABBEFEE7260002007047401CA3
:1002500070474FF0E0214861704702680B681A440C
:10026000026042684B681A4442608268896811449F
:10027000816000F00FB880E80E007047D0E90021DF
:10028000C2EB021201EB82018068C1EB011100EBAD
:100290008100704710B583683C21B3FBF1F24468DC
:1002A0002244B3FBF1F401FB14338360B2FBF1F39E
:1002B000046823440360B2FBF1F301FB13214160A6
:1002C00010BD00003EB50120FFF7C1FF0D4C00EB53
:1002D000400004EB80001E232D220221FFF7CBFFFC
:1002E000183494E807008DE8070020466946044664
:1002F000FFF7B3FF2046FFF7C1FFFFF7AAFF00207B
:100300003EBD00000000002018030008000000208F
:0803100090060000280100081E
:04000005080000ED02
:00000001FF
