:020000040800F2
:100000000004002001010008250100082701000864
:10001000290100082B0100082D0100080000000044
:100020000000000000000000000000002F01000898
:10003000310100080000000033010008350100080C
:1000400037010008370100083701000837010008B0
:1000500037010008370100083701000837010008A0
:100060003701000837010008370100083701000890
:100070003701000837010008370100083701000880
:100080003701000837010008370100083701000870
:100090003701000837010008370100083701000860
:1000A0003701000837010008370100083701000850
:1000B0003701000837010008370100083701000840
:1000C0003701000837010008370100083701000830
:1000D0003701000837010008370100083701000820
:1000E000370100083701000837010008DFF80CD09D
:1000F00000F02CF800480047970100080004002099
:100100000D488047DFF83400016841F4E0210160C8
:10011000BFF34F8FDFF82800DFF8281001600A488E
:1001200000477047FEE7FEE7FEE7FEE7FEE7FEE773
:10013000FEE7FEE7FEE7FEE72301000824ED00E00E
:100140000CED00E00003FA05ED000008064C074D39
:1001500006E0E06840F0010394E807009847103497
:10016000AC42F6D3FFF7C6FFF0010008000200081A
:1001700002E008C8121F08C1002AFAD17047704770
:10018000002001E001C1121F002AFBD170474FF08F
:10019000E021486170474FF4805000F005F80446B4
:1001A000FFF7F5FF00BFFEE730B589B00546002434
:1001B00004E004FB04504DF82400641C092CF8DB17
:1001C000684600F004F80446204609B030BD0146F8
:1001D000002209E0501C51F8200051F8223003445D
:1001E000501C41F82030521C092AF3DB086A704782
:1001F0000002000800000020000400008001000848
:04000005080000ED02
:00000001FF
